:020000040800F2
:1000000000000220110200086102000861020008DD
:10001000610200086102000861020008000000009F
:100020000000000000000000000000006102000865
:10003000610200080000000061020008610200087F
:100040006102000861020008610200086102000804
:10005000000000006102000861020008610200085F
:1000600061020008610200086102000861020008E4
:1000700061020008610200086102000861020008D4
:1000800061020008610200086102000861020008C4
:1000900061020008610200086102000861020008B4
:1000A00061020008610200086102000861020008A4
:1000B0006102000861020008610200086102000894
:1000C0006102000861020008610200086102000884
:1000D0006102000861020008610200086102000874
:1000E0006102000861020008610200086102000864
:1000F0006102000861020008610200086102000854
:100100006102000861020008610200086102000843
:100110006102000861020008610200086102000833
:100120006102000861020008610200086102000823
:100130006102000861020008610200086102000813
:100140006102000861020008610200086102000803
:1001500061020008610200086102000861020008F3
:1001600061020008610200086102000861020008E3
:1001700061020008610200086102000861020008D3
:100180006102000861020008000000000000000099
:10019000000000000000000000000000000000005F
:0801A000610200086102000881
:1001A80010B5054C237833B9044B13B10448AFF3A9
:1001B80000800123237010BD000000200000000013
:1001C800000B000808B5034B1BB103490348AFF304
:1001D800008008BD0000000004000020000B00089B
:1001E80080B500AF00F092F8054800F07BF80421D4
:1001F800022000F057F9034800F074F800BFFDE74B
:10020800180B00082C0B00080D488546AFF300803A
:100218000C480D490D4A002302E0D458C450043359
:10022800C4188C42F9D30A4A0A4C002301E013602F
:100238000432A242FBD300F03BFCFFF7D1FFFEE7FC
:10024800000002200000002000000020400B0008F1
:10025800000000201C000020FEE7000080B582B0EE
:1002680000AF0346FB71002200210C4800F0FAFBA6
:1002780000220121094800F0F5FBFB791B09DBB2DC
:10028800184600F0CDF8FB7903F00F03DBB21846EF
:1002980000F0C6F800BF0837BD4680BD000C02401C
:1002A80080B582B000AF0346FB71012200210C48E3
:1002B80000F0D8FB00220121094800F0D3FBFB79AC
:1002C8001B09DBB2184600F0ABF8FB7903F00F030B
:1002D800DBB2184600F0A4F800BF0837BD4680BD61
:1002E800000C024080B582B000AF78607B685A1C71
:1002F8007A601B781846FFF7D3FF7B681B78002BC2
:10030800F4D100BF00BF0837BD4680BD80B584B0BA
:1003180000AF424B7B6001237B7200233B720023BA
:100328003B730023FB720223BB723B1D184600F08F
:100338000DFA01233B723B1D184600F007FA022311
:100348003B723B1D184600F001FA03233B723B1D2C
:10035800184600F0FBF904233B723B1D184600F0D9
:10036800F5F905233B723B1D184600F0EFF906230B
:100378003B723B1D184600F0E9F90022002127488E
:1003880000F070FB00220121244800F06BFB0022E2
:100398000221224800F066FB002203211F4800F0DA
:1003A80061FB002204211D4800F05CFB00220521AE
:1003B8001A4800F057FB00220621184800F052FBAB
:1003C800282000F0ADF800220021144800F04AFB74
:1003D80000220121114800F045FB032000F020F81D
:1003E800052000F09DF8032000F01AF8962000F090
:1003F800B0F8032000F014F8022000F011F82820CB
:10040800FFF72CFF0C20FFF729FF00F041F806202A
:10041800FFF724FF00BF1037BD4680BD000C024027
:1004280080B582B000AF0346FB71FB7903F001038E
:10043800DBB21A460321154800F014FBFB795B0870
:10044800DBB203F00103DBB21A4604210F4800F0C7
:1004580009FBFB799B08DBB203F00103DBB21A4608
:1004680005210A4800F0FEFAFB79DB08DBB203F04D
:100478000103DBB21A460621044800F0F3FA00F043
:1004880039F800BF0837BD4680BD00BF000C0240E8
:1004980080B500AF0120FFF7E1FE022000F040F830
:1004A80000BF80BD80B582B000AF03460A46FB712D
:1004B8001346BB71BB79013BBB71FB79012B02D0A1
:1004C800022B09D011E0BB7963F07F03BB71BB79C4
:1004D8001846FFF7C3FE08E0BB7963F03F03BB7122
:1004E800BB791846FFF7BAFE00BF00BF0837BD4604
:1004F80080BD000080B500AF01220221074800F04E
:10050800B1FA0A2000F025F800220221034800F081
:10051800A9FA642000F01DF800BF80BD000C02405D
:1005280080B485B000AF78600023FB6002E0FB6810
:100538000133FB607B684FF47A7202FB03F3FA68BD
:100548009A42F4D300BF00BF1437BD465DF8047B60
:10055800704780B485B000AF78600023FB6002E08C
:10056800FB680133FB60FA687B689A42F8D300BFE6
:1005780000BF1437BD465DF8047B704780B483B074
:1005880000AF78600B46FB70FB78012B62D17B686B
:10059800644A934206D1644B1B6B634A43F00103E0
:1005A8001363B9E07B68614A934206D15E4B1B6BCB
:1005B8005D4A43F002031363AEE07B685C4A9342F2
:1005C80006D1594B1B6B584A43F004031363A3E04D
:1005D8007B68584A934206D1534B1B6B524A43F0EF
:1005E8000803136398E07B68534A934206D14E4B45
:1005F8001B6B4D4A43F0100313638DE07B684F4A31
:10060800934206D1484B1B6B474A43F020031363C0
:1006180082E07B684A4A934206D1434B1B6B424AAD
:1006280043F04003136377E07B68464A934206D160
:100638003D4B1B6B3C4A43F0800313636CE07B68C3
:10064800414A934268D1384B1B6B374A43F4807355
:10065800136361E07B68334A934206D1324B1B6BCC
:10066800314A23F00103136356E07B682F4A934213
:1006780006D12D4B1B6B2C4A23F0020313634BE06E
:100688007B682B4A934206D1274B1B6B264A23F0E3
:100698000403136340E07B68264A934206D1224B49
:1006A8001B6B214A23F00803136335E07B68224A59
:1006B800934206D11C4B1B6B1B4A23F01003136398
:1006C8002AE07B681D4A934206D1174B1B6B164ADA
:1006D80023F0200313631FE07B68194A934206D175
:1006E800114B1B6B104A23F04003136314E07B6823
:1006F800144A934206D10C4B1B6B0B4A23F0800320
:10070800136309E07B68104A934205D1064B1B6BC3
:10071800054A23F48073136300BF0C37BD465DF8A8
:10072800047B704700000240003802400004024089
:1007380000080240000C0240001002400014024071
:1007480000180240001C02400020024080B586B01C
:1007580000AF786000237B617B681B680121184625
:10076800FFF70CFF7B685B79032B13D87B685B79F9
:100778001A467B681B795B0002FA03F37B617B688E
:100788001B6819687B681B687A690A431A6000232A
:100798007B61C2E07B685B79042B17D1474BDB6830
:1007A8007A681279114601228A401146434A0B435E
:1007B800D360424B9B687A681279114601228A40BD
:1007C800D24311463D4A0B40936035E07B685B7924
:1007D800052B17D1394B9B687A681279114601228B
:1007E8008A401146354A0B439360344BDB687A687C
:1007F8001279114601228A40D24311462F4A0B40F2
:10080800D36019E07B685B79062B15D12B4B9B686D
:100818007A681279114601228A401146274A0B4309
:100828009360264BDB687A681279114601228A4068
:100838001146224A0B43D3607B681B799B08FB74E3
:100848007B681B7903F00303BB747B681B681C4A35
:10085800934245D07B681B681A4A93422BD07B6829
:100868001B68194A934224D07B681B68174A934235
:100878001DD07B681B68164A934216D07B681B689C
:10088800144A93420FD07B681B68134A934208D0DE
:100898007B681B68114A934201D1082321E0092390
:1008A8001FE007231DE005231BE0042319E00323B1
:1008B80017E0022315E0012313E000BF003C0140CC
:1008C800000002400004024000080240000C024000
:1008D800001002400014024000180240001C0240B0
:1008E80000237B745C4B5B6C5B4A43F4804353642A
:1008F8007A7CBB7C9B0002FA03F1584AFB7C0233EA
:1009080042F82310564B1B687A6812791146012267
:100918008A401146524A0B43136000237B617B686F
:100928009B791A467B681B795B0002FA03F37B61AB
:100938007B681B689A687B681B79194603238B4080
:10094800DB4319467B681B680A409A607B681B6812
:1009580099687B681B687A690A439A6000237B61FF
:100968007B68DB791A467B681B795B0002FA03F324
:100978007B617B681B68DA687B681B7919460323EF
:100988008B40DB4319467B681B680A40DA607B684A
:100998001B68D9687B681B687A690A43DA60002398
:1009A8007B617B681B7A1A467B681B7902FA03F322
:1009B8007B617B681B685A687B681B791946012331
:1009C8008B40DB4319467B681B680A405A607B688A
:1009D8001B6859687B681B687A690A435A60002358
:1009E8007B617B685B79022B32D17B681B79DB08E2
:1009F800DBB2FB607B681B7903F00703BB607B6895
:100A08001B68FA68083253F82220BB689B000F2144
:100A180001FA03F3DB4319467B681B681140FA6847
:100A2800083243F822107B681B68FA68083253F8CA
:100A380022207B685B7A1946BB689B0001FA03F3A6
:100A480019467B681B681143FA68083243F822107C
:100A580000BF1837BD4680BD00380240003801404D
:100A6800003C014080B483B000AF78600B46FB7057
:100A78001346BB70BB78012B09D17B685B69FA7898
:100A8800012101FA02F21A437B685A6109E07B6886
:100A98005B69FA78012101FA02F2D2431A407B68B5
:100AA8005A6100BF0C37BD465DF8047B70470000F3
:100AB80070B50D4D0D4C641BA4100026A64209D13B
:100AC8000B4D0C4C00F018F8641BA4100026A6422D
:100AD80005D170BD55F8043B98470136EEE755F847
:100AE800043B98470136F2E7380B0008380B00083A
:100AF800380B00083C0B0008F8B500BFF8BC08BC70
:100B08009E467047F8B500BFF8BC08BC9E467047C3
:100B18004469206D6574726F2063686F69206B6823
:100B28006F6E6700446968692062616F00000000A9
:040B3800CD010008E3
:040B3C00A901000803
:0400000508000211DC
:00000001FF
